{
  "contractName": "creator",
  "abi": [
    {
      "inputs": [
        {
          "internalType": "uint32",
          "name": "",
          "type": "uint32"
        }
      ],
      "name": "cryptomonList",
      "outputs": [
        {
          "internalType": "uint32",
          "name": "id",
          "type": "uint32"
        },
        {
          "internalType": "string",
          "name": "name",
          "type": "string"
        },
        {
          "internalType": "uint32",
          "name": "hp",
          "type": "uint32"
        },
        {
          "internalType": "uint32",
          "name": "speed",
          "type": "uint32"
        },
        {
          "internalType": "address",
          "name": "owner",
          "type": "address"
        },
        {
          "components": [
            {
              "internalType": "uint32",
              "name": "id",
              "type": "uint32"
            },
            {
              "internalType": "string",
              "name": "name",
              "type": "string"
            },
            {
              "internalType": "uint32",
              "name": "damage",
              "type": "uint32"
            },
            {
              "internalType": "uint32",
              "name": "missRate",
              "type": "uint32"
            }
          ],
          "internalType": "struct creator.move",
          "name": "move1",
          "type": "tuple"
        },
        {
          "components": [
            {
              "internalType": "uint32",
              "name": "id",
              "type": "uint32"
            },
            {
              "internalType": "string",
              "name": "name",
              "type": "string"
            },
            {
              "internalType": "uint32",
              "name": "damage",
              "type": "uint32"
            },
            {
              "internalType": "uint32",
              "name": "missRate",
              "type": "uint32"
            }
          ],
          "internalType": "struct creator.move",
          "name": "move2",
          "type": "tuple"
        }
      ],
      "stateMutability": "view",
      "type": "function",
      "constant": true
    },
    {
      "inputs": [
        {
          "internalType": "uint32",
          "name": "",
          "type": "uint32"
        }
      ],
      "name": "movesList",
      "outputs": [
        {
          "internalType": "uint32",
          "name": "id",
          "type": "uint32"
        },
        {
          "internalType": "string",
          "name": "name",
          "type": "string"
        },
        {
          "internalType": "uint32",
          "name": "damage",
          "type": "uint32"
        },
        {
          "internalType": "uint32",
          "name": "missRate",
          "type": "uint32"
        }
      ],
      "stateMutability": "view",
      "type": "function",
      "constant": true
    },
    {
      "inputs": [
        {
          "internalType": "string",
          "name": "n",
          "type": "string"
        },
        {
          "internalType": "uint32",
          "name": "h",
          "type": "uint32"
        },
        {
          "internalType": "uint32",
          "name": "s",
          "type": "uint32"
        },
        {
          "internalType": "address",
          "name": "o",
          "type": "address"
        }
      ],
      "name": "createCryptomon",
      "outputs": [
        {
          "internalType": "string",
          "name": "",
          "type": "string"
        }
      ],
      "stateMutability": "nonpayable",
      "type": "function"
    },
    {
      "inputs": [
        {
          "internalType": "string",
          "name": "n",
          "type": "string"
        },
        {
          "internalType": "uint32",
          "name": "d",
          "type": "uint32"
        },
        {
          "internalType": "uint32",
          "name": "m",
          "type": "uint32"
        }
      ],
      "name": "createMove",
      "outputs": [
        {
          "internalType": "string",
          "name": "",
          "type": "string"
        }
      ],
      "stateMutability": "nonpayable",
      "type": "function"
    },
    {
      "inputs": [
        {
          "internalType": "uint32",
          "name": "cID_",
          "type": "uint32"
        },
        {
          "internalType": "uint32",
          "name": "mID_",
          "type": "uint32"
        }
      ],
      "name": "addMove",
      "outputs": [
        {
          "internalType": "string",
          "name": "",
          "type": "string"
        }
      ],
      "stateMutability": "nonpayable",
      "type": "function"
    },
    {
      "inputs": [
        {
          "internalType": "uint32",
          "name": "cID_",
          "type": "uint32"
        },
        {
          "internalType": "address",
          "name": "newOwner_",
          "type": "address"
        }
      ],
      "name": "updateOwner",
      "outputs": [
        {
          "internalType": "string",
          "name": "",
          "type": "string"
        }
      ],
      "stateMutability": "nonpayable",
      "type": "function"
    },
    {
      "inputs": [
        {
          "internalType": "uint32",
          "name": "cID_",
          "type": "uint32"
        }
      ],
      "name": "ToString",
      "outputs": [
        {
          "internalType": "string",
          "name": "s",
          "type": "string"
        }
      ],
      "stateMutability": "view",
      "type": "function",
      "constant": true
    }
  ],
  "bytecode": "0x608060405234801561001057600080fd5b5061186f806100206000396000f3fe608060405234801561001057600080fd5b506004361061007d5760003560e01c806373ff50391161005b57806373ff50391461011257806393df1bca14610145578063a73ad2a61461017b578063d29f3efc146101ab5761007d565b80631fd8e3ce146100825780632c1ee700146100b2578063558dfe1c146100e2575b600080fd5b61009c60048036038101906100979190610f2a565b6101db565b6040516100a99190610ff0565b60405180910390f35b6100cc60048036038101906100c791906111a5565b610225565b6040516100d99190610ff0565b60405180910390f35b6100fc60048036038101906100f79190611228565b610412565b6040516101099190610ff0565b60405180910390f35b61012c60048036038101906101279190610f2a565b6104be565b60405161013c9493929190611277565b60405180910390f35b61015f600480360381019061015a9190610f2a565b6105a6565b604051610172979695949392919061138e565b60405180910390f35b61019560048036038101906101909190611412565b6108dc565b6040516101a29190610ff0565b60405180910390f35b6101c560048036038101906101c09190611452565b610cad565b6040516101d29190610ff0565b60405180910390f35b6060600360008363ffffffff1663ffffffff16815260200190815260200160002060010160405160200161020f919061160d565b6040516020818303038152906040529050919050565b606060006002600081819054906101000a900463ffffffff168092919061024b9061165e565b91906101000a81548163ffffffff021916908363ffffffff160217905550905080600360008363ffffffff1663ffffffff16815260200190815260200160002060000160006101000a81548163ffffffff021916908363ffffffff16021790555085600360008363ffffffff1663ffffffff16815260200190815260200160002060010190805190602001906102e2929190610e37565b5084600360008363ffffffff1663ffffffff16815260200190815260200160002060020160006101000a81548163ffffffff021916908363ffffffff16021790555083600360008363ffffffff1663ffffffff16815260200190815260200160002060020160046101000a81548163ffffffff021916908363ffffffff16021790555082600360008363ffffffff1663ffffffff16815260200190815260200160002060020160086101000a81548173ffffffffffffffffffffffffffffffffffffffff021916908373ffffffffffffffffffffffffffffffffffffffff160217905550600360008263ffffffff1663ffffffff1681526020019081526020016000206001016040516020016103f891906116d7565b604051602081830303815290604052915050949350505050565b606081600360008563ffffffff1663ffffffff16815260200190815260200160002060020160086101000a81548173ffffffffffffffffffffffffffffffffffffffff021916908373ffffffffffffffffffffffffffffffffffffffff160217905550600360008463ffffffff1663ffffffff1681526020019081526020016000206001016040516020016104a79190611745565b604051602081830303815290604052905092915050565b60016020528060005260406000206000915090508060000160009054906101000a900463ffffffff16908060010180546104f790611547565b80601f016020809104026020016040519081016040528092919081815260200182805461052390611547565b80156105705780601f1061054557610100808354040283529160200191610570565b820191906000526020600020905b81548152906001019060200180831161055357829003601f168201915b5050505050908060020160009054906101000a900463ffffffff16908060020160049054906101000a900463ffffffff16905084565b60036020528060005260406000206000915090508060000160009054906101000a900463ffffffff16908060010180546105df90611547565b80601f016020809104026020016040519081016040528092919081815260200182805461060b90611547565b80156106585780601f1061062d57610100808354040283529160200191610658565b820191906000526020600020905b81548152906001019060200180831161063b57829003601f168201915b5050505050908060020160009054906101000a900463ffffffff16908060020160049054906101000a900463ffffffff16908060020160089054906101000a900473ffffffffffffffffffffffffffffffffffffffff1690806003016040518060800160405290816000820160009054906101000a900463ffffffff1663ffffffff1663ffffffff1681526020016001820180546106f590611547565b80601f016020809104026020016040519081016040528092919081815260200182805461072190611547565b801561076e5780601f106107435761010080835404028352916020019161076e565b820191906000526020600020905b81548152906001019060200180831161075157829003601f168201915b505050505081526020016002820160009054906101000a900463ffffffff1663ffffffff1663ffffffff1681526020016002820160049054906101000a900463ffffffff1663ffffffff1663ffffffff168152505090806006016040518060800160405290816000820160009054906101000a900463ffffffff1663ffffffff1663ffffffff16815260200160018201805461080990611547565b80601f016020809104026020016040519081016040528092919081815260200182805461083590611547565b80156108825780601f1061085757610100808354040283529160200191610882565b820191906000526020600020905b81548152906001019060200180831161086557829003601f168201915b505050505081526020016002820160009054906101000a900463ffffffff1663ffffffff1663ffffffff1681526020016002820160049054906101000a900463ffffffff1663ffffffff1663ffffffff1681525050905087565b606060006040518060800160405280600160008663ffffffff1663ffffffff16815260200190815260200160002060000160009054906101000a900463ffffffff1663ffffffff168152602001600160008663ffffffff1663ffffffff168152602001908152602001600020600101805461095690611547565b80601f016020809104026020016040519081016040528092919081815260200182805461098290611547565b80156109cf5780601f106109a4576101008083540402835291602001916109cf565b820191906000526020600020905b8154815290600101906020018083116109b257829003601f168201915b50505050508152602001600160008663ffffffff1663ffffffff16815260200190815260200160002060020160009054906101000a900463ffffffff1663ffffffff168152602001600160008663ffffffff1663ffffffff16815260200190815260200160002060020160049054906101000a900463ffffffff1663ffffffff1681525090506000600360008663ffffffff1663ffffffff1681526020019081526020016000206003016001018054610a8790611547565b90501415610b4c5780600360008663ffffffff1663ffffffff16815260200190815260200160002060030160008201518160000160006101000a81548163ffffffff021916908363ffffffff1602179055506020820151816001019080519060200190610af5929190610e37565b5060408201518160020160006101000a81548163ffffffff021916908363ffffffff16021790555060608201518160020160046101000a81548163ffffffff021916908363ffffffff160217905550905050610c40565b6000600360008663ffffffff1663ffffffff1681526020019081526020016000206006016001018054610b7e90611547565b90501415610c3f5780600360008663ffffffff1663ffffffff16815260200190815260200160002060060160008201518160000160006101000a81548163ffffffff021916908363ffffffff1602179055506020820151816001019080519060200190610bec929190610e37565b5060408201518160020160006101000a81548163ffffffff021916908363ffffffff16021790555060608201518160020160046101000a81548163ffffffff021916908363ffffffff1602179055509050505b5b600160008463ffffffff1663ffffffff168152602001908152602001600020600101600360008663ffffffff1663ffffffff168152602001908152602001600020600101604051602001610c959291906117ff565b60405160208183030381529060405291505092915050565b6060600080600081819054906101000a900463ffffffff1680929190610cd29061165e565b91906101000a81548163ffffffff021916908363ffffffff160217905550905080600160008363ffffffff1663ffffffff16815260200190815260200160002060000160006101000a81548163ffffffff021916908363ffffffff16021790555084600160008363ffffffff1663ffffffff1681526020019081526020016000206001019080519060200190610d69929190610e37565b5083600160008363ffffffff1663ffffffff16815260200190815260200160002060020160006101000a81548163ffffffff021916908363ffffffff16021790555082600160008363ffffffff1663ffffffff16815260200190815260200160002060020160046101000a81548163ffffffff021916908363ffffffff160217905550600160008263ffffffff1663ffffffff168152602001908152602001600020600101604051602001610e1e91906116d7565b6040516020818303038152906040529150509392505050565b828054610e4390611547565b90600052602060002090601f016020900481019282610e655760008555610eac565b82601f10610e7e57805160ff1916838001178555610eac565b82800160010185558215610eac579182015b82811115610eab578251825591602001919060010190610e90565b5b509050610eb99190610ebd565b5090565b5b80821115610ed6576000816000905550600101610ebe565b5090565b6000604051905090565b600080fd5b600080fd5b600063ffffffff82169050919050565b610f0781610eee565b8114610f1257600080fd5b50565b600081359050610f2481610efe565b92915050565b600060208284031215610f4057610f3f610ee4565b5b6000610f4e84828501610f15565b91505092915050565b600081519050919050565b600082825260208201905092915050565b60005b83811015610f91578082015181840152602081019050610f76565b83811115610fa0576000848401525b50505050565b6000601f19601f8301169050919050565b6000610fc282610f57565b610fcc8185610f62565b9350610fdc818560208601610f73565b610fe581610fa6565b840191505092915050565b6000602082019050818103600083015261100a8184610fb7565b905092915050565b600080fd5b600080fd5b7f4e487b7100000000000000000000000000000000000000000000000000000000600052604160045260246000fd5b61105482610fa6565b810181811067ffffffffffffffff821117156110735761107261101c565b5b80604052505050565b6000611086610eda565b9050611092828261104b565b919050565b600067ffffffffffffffff8211156110b2576110b161101c565b5b6110bb82610fa6565b9050602081019050919050565b82818337600083830152505050565b60006110ea6110e584611097565b61107c565b90508281526020810184848401111561110657611105611017565b5b6111118482856110c8565b509392505050565b600082601f83011261112e5761112d611012565b5b813561113e8482602086016110d7565b91505092915050565b600073ffffffffffffffffffffffffffffffffffffffff82169050919050565b600061117282611147565b9050919050565b61118281611167565b811461118d57600080fd5b50565b60008135905061119f81611179565b92915050565b600080600080608085870312156111bf576111be610ee4565b5b600085013567ffffffffffffffff8111156111dd576111dc610ee9565b5b6111e987828801611119565b94505060206111fa87828801610f15565b935050604061120b87828801610f15565b925050606061121c87828801611190565b91505092959194509250565b6000806040838503121561123f5761123e610ee4565b5b600061124d85828601610f15565b925050602061125e85828601611190565b9150509250929050565b61127181610eee565b82525050565b600060808201905061128c6000830187611268565b818103602083015261129e8186610fb7565b90506112ad6040830185611268565b6112ba6060830184611268565b95945050505050565b6112cc81611167565b82525050565b6112db81610eee565b82525050565b600082825260208201905092915050565b60006112fd82610f57565b61130781856112e1565b9350611317818560208601610f73565b61132081610fa6565b840191505092915050565b600060808301600083015161134360008601826112d2565b506020830151848203602086015261135b82826112f2565b915050604083015161137060408601826112d2565b50606083015161138360608601826112d2565b508091505092915050565b600060e0820190506113a3600083018a611268565b81810360208301526113b58189610fb7565b90506113c46040830188611268565b6113d16060830187611268565b6113de60808301866112c3565b81810360a08301526113f0818561132b565b905081810360c0830152611404818461132b565b905098975050505050505050565b6000806040838503121561142957611428610ee4565b5b600061143785828601610f15565b925050602061144885828601610f15565b9150509250929050565b60008060006060848603121561146b5761146a610ee4565b5b600084013567ffffffffffffffff81111561148957611488610ee9565b5b61149586828701611119565b93505060206114a686828701610f15565b92505060406114b786828701610f15565b9150509250925092565b600081905092915050565b7f6e616d653a200000000000000000000000000000000000000000000000000000600082015250565b60006115026006836114c1565b915061150d826114cc565b600682019050919050565b7f4e487b7100000000000000000000000000000000000000000000000000000000600052602260045260246000fd5b6000600282049050600182168061155f57607f821691505b6020821081141561157357611572611518565b5b50919050565b60008190508160005260206000209050919050565b6000815461159b81611547565b6115a581866114c1565b945060018216600081146115c057600181146115d157611604565b60ff19831686528186019350611604565b6115da85611579565b60005b838110156115fc578154818901526001820191506020810190506115dd565b838801955050505b50505092915050565b6000611618826114f5565b9150611624828461158e565b915081905092915050565b7f4e487b7100000000000000000000000000000000000000000000000000000000600052601160045260246000fd5b600061166982610eee565b915063ffffffff8214156116805761167f61162f565b5b600182019050919050565b7f2063726561746564207375636365737366756c6c792100000000000000000000600082015250565b60006116c16016836114c1565b91506116cc8261168b565b601682019050919050565b60006116e3828461158e565b91506116ee826116b4565b915081905092915050565b7f206f776e65722075706461746564207375636365737366756c6c792100000000600082015250565b600061172f601c836114c1565b915061173a826116f9565b601c82019050919050565b6000611751828461158e565b915061175c82611722565b915081905092915050565b7f20616464656420746f2000000000000000000000000000000000000000000000600082015250565b600061179d600a836114c1565b91506117a882611767565b600a82019050919050565b7f207375636365737366756c6c7921000000000000000000000000000000000000600082015250565b60006117e9600e836114c1565b91506117f4826117b3565b600e82019050919050565b600061180b828561158e565b915061181682611790565b9150611822828461158e565b915061182d826117dc565b9150819050939250505056fea264697066735822122089b034bb35cc8fbc0130b2b1d405b83016df85ff5b5325a14f6e74ade24d9b1e64736f6c634300080b0033",
  "immutableReferences": {},
  "source": "// SPDX-License-Identifier: Logan Hoots and Collin Stratton Project\r\npragma solidity >=0.4.22 <0.9.0;\r\n\r\n\r\n// create contract that creates cryptomons and moves\r\ncontract creator {\r\n    uint32 move_id;\r\n    struct move {\r\n        uint32 id;\r\n        string name;\r\n        uint32 damage;\r\n        uint32 missRate;\r\n    } mapping(uint32 => move) public movesList;\r\n\r\n    uint32 cryptomon_id;\r\n    struct cryptomon {\r\n        uint32 id;\r\n        string name;\r\n        uint32 hp;\r\n        uint32 speed;\r\n        address owner;\r\n        move move1;\r\n        move move2;\r\n    } mapping(uint32 => cryptomon) public cryptomonList;\r\n\r\n    function createCryptomon(string memory n, uint32 h, uint32 s, address o) public returns (string memory) {\r\n        uint32 ID = cryptomon_id++;\r\n        cryptomonList[ID].id = ID;\r\n        cryptomonList[ID].name = n;\r\n        cryptomonList[ID].hp = h;\r\n        cryptomonList[ID].speed = s;\r\n        cryptomonList[ID].owner = o;\r\n        return string(abi.encodePacked(cryptomonList[ID].name, \" created successfully!\"));\r\n    }\r\n\r\n    function createMove(string memory n, uint32 d, uint32 m) public returns (string memory) {\r\n        uint32 ID = move_id++;\r\n        movesList[ID].id = ID;\r\n        movesList[ID].name = n;\r\n        movesList[ID].damage = d;\r\n        movesList[ID].missRate = m;\r\n        return string(abi.encodePacked(movesList[ID].name, \" created successfully!\"));\r\n    }\r\n\r\n    function addMove(uint32 cID_, uint32 mID_) public returns (string memory) {\r\n        move memory m = move(movesList[mID_].id, movesList[mID_].name, movesList[mID_].damage, movesList[mID_].missRate);\r\n        if (bytes(cryptomonList[cID_].move1.name).length == 0) cryptomonList[cID_].move1 = m;\r\n        else if (bytes(cryptomonList[cID_].move2.name).length == 0) cryptomonList[cID_].move2 = m;\r\n        return string(abi.encodePacked(movesList[mID_].name, \" added to \", cryptomonList[cID_].name, \" successfully!\"));\r\n    }\r\n\r\n    // function to update the owner of the cryptomon\r\n    function updateOwner(uint32 cID_, address newOwner_) public returns (string memory) {\r\n        cryptomonList[cID_].owner = newOwner_;\r\n        return string(abi.encodePacked(cryptomonList[cID_].name, \" owner updated successfully!\"));\r\n    }\r\n\r\n    // function to return cryptomon from cryptomon list by id as string\r\n    function ToString(uint32 cID_) public view returns (string memory s) {\r\n        s = string(abi.encodePacked(\"name: \", cryptomonList[cID_].name));\r\n    }\r\n}",
  "sourcePath": "D:\\Collins_CST-461\\Cryptomon\\contracts\\creator.sol",
  "compiler": {
    "name": "solc",
    "version": "0.8.11+commit.d7f03943.Emscripten.clang"
  },
  "schemaVersion": "3.4.4",
  "updatedAt": "2022-04-20T09:18:30.741Z",
  "networkType": "ethereum",
  "devdoc": {
    "kind": "dev",
    "methods": {},
    "version": 1
  },
  "userdoc": {
    "kind": "user",
    "methods": {},
    "version": 1
  }
}