{
  "contractName": "cryptomon",
  "abi": [
    {
      "inputs": [
        {
          "internalType": "string",
          "name": "name_",
          "type": "string"
        },
        {
          "internalType": "uint32",
          "name": "attack_",
          "type": "uint32"
        },
        {
          "internalType": "uint32",
          "name": "defense_",
          "type": "uint32"
        },
        {
          "internalType": "uint32",
          "name": "hp_",
          "type": "uint32"
        },
        {
          "internalType": "address",
          "name": "owner_",
          "type": "address"
        }
      ],
      "stateMutability": "nonpayable",
      "type": "constructor"
    },
    {
      "inputs": [
        {
          "internalType": "contract move",
          "name": "m",
          "type": "address"
        }
      ],
      "name": "addMove",
      "outputs": [],
      "stateMutability": "nonpayable",
      "type": "function"
    },
    {
      "inputs": [],
      "name": "printName",
      "outputs": [
        {
          "internalType": "string",
          "name": "name_",
          "type": "string"
        }
      ],
      "stateMutability": "view",
      "type": "function",
      "constant": true
    }
  ],
  "bytecode": "0x608060405260405180602001604052806000815250600090805190602001906200002b9291906200018d565b506000600160006101000a81548163ffffffff021916908363ffffffff1602179055506000600160046101000a81548163ffffffff021916908363ffffffff1602179055506000600160086101000a81548163ffffffff021916908363ffffffff1602179055503480156200009f57600080fd5b50604051620008fd380380620008fd8339818101604052810190620000c5919062000480565b8460009080519060200190620000dd9291906200018d565b5083600160006101000a81548163ffffffff021916908363ffffffff16021790555082600160046101000a81548163ffffffff021916908363ffffffff16021790555081600160086101000a81548163ffffffff021916908363ffffffff160217905550806001600c6101000a81548173ffffffffffffffffffffffffffffffffffffffff021916908373ffffffffffffffffffffffffffffffffffffffff16021790555050505050506200058c565b8280546200019b9062000556565b90600052602060002090601f016020900481019282620001bf57600085556200020b565b82601f10620001da57805160ff19168380011785556200020b565b828001600101855582156200020b579182015b828111156200020a578251825591602001919060010190620001ed565b5b5090506200021a91906200021e565b5090565b5b80821115620002395760008160009055506001016200021f565b5090565b6000604051905090565b600080fd5b600080fd5b600080fd5b600080fd5b6000601f19601f8301169050919050565b7f4e487b7100000000000000000000000000000000000000000000000000000000600052604160045260246000fd5b620002a6826200025b565b810181811067ffffffffffffffff82111715620002c857620002c76200026c565b5b80604052505050565b6000620002dd6200023d565b9050620002eb82826200029b565b919050565b600067ffffffffffffffff8211156200030e576200030d6200026c565b5b62000319826200025b565b9050602081019050919050565b60005b838110156200034657808201518184015260208101905062000329565b8381111562000356576000848401525b50505050565b6000620003736200036d84620002f0565b620002d1565b90508281526020810184848401111562000392576200039162000256565b5b6200039f84828562000326565b509392505050565b600082601f830112620003bf57620003be62000251565b5b8151620003d18482602086016200035c565b91505092915050565b600063ffffffff82169050919050565b620003f581620003da565b81146200040157600080fd5b50565b6000815190506200041581620003ea565b92915050565b600073ffffffffffffffffffffffffffffffffffffffff82169050919050565b600062000448826200041b565b9050919050565b6200045a816200043b565b81146200046657600080fd5b50565b6000815190506200047a816200044f565b92915050565b600080600080600060a086880312156200049f576200049e62000247565b5b600086015167ffffffffffffffff811115620004c057620004bf6200024c565b5b620004ce88828901620003a7565b9550506020620004e18882890162000404565b9450506040620004f48882890162000404565b9350506060620005078882890162000404565b92505060806200051a8882890162000469565b9150509295509295909350565b7f4e487b7100000000000000000000000000000000000000000000000000000000600052602260045260246000fd5b600060028204905060018216806200056f57607f821691505b6020821081141562000586576200058562000527565b5b50919050565b610361806200059c6000396000f3fe608060405234801561001057600080fd5b50600436106100365760003560e01c8063846eb6d71461003b578063bf7297a214610057575b600080fd5b610055600480360381019061005091906101e2565b610075565b005b61005f6100db565b60405161006c91906102a8565b60405180910390f35b6002819080600181540180825580915050600190039060005260206000200160009091909190916101000a81548173ffffffffffffffffffffffffffffffffffffffff021916908373ffffffffffffffffffffffffffffffffffffffff16021790555050565b6060600080546100ea906102f9565b80601f0160208091040260200160405190810160405280929190818152602001828054610116906102f9565b80156101635780601f1061013857610100808354040283529160200191610163565b820191906000526020600020905b81548152906001019060200180831161014657829003601f168201915b5050505050905090565b600080fd5b600073ffffffffffffffffffffffffffffffffffffffff82169050919050565b600061019d82610172565b9050919050565b60006101af82610192565b9050919050565b6101bf816101a4565b81146101ca57600080fd5b50565b6000813590506101dc816101b6565b92915050565b6000602082840312156101f8576101f761016d565b5b6000610206848285016101cd565b91505092915050565b600081519050919050565b600082825260208201905092915050565b60005b8381101561024957808201518184015260208101905061022e565b83811115610258576000848401525b50505050565b6000601f19601f8301169050919050565b600061027a8261020f565b610284818561021a565b935061029481856020860161022b565b61029d8161025e565b840191505092915050565b600060208201905081810360008301526102c2818461026f565b905092915050565b7f4e487b7100000000000000000000000000000000000000000000000000000000600052602260045260246000fd5b6000600282049050600182168061031157607f821691505b60208210811415610325576103246102ca565b5b5091905056fea2646970667358221220b3e4ff5e8ce100fcf1b5fada6a165e2c5349c83e580a303a083e76382d6ddb1a64736f6c634300080b0033",
  "immutableReferences": {},
  "source": "// SPDX-License-Identifier: Logan Hoots and Collin Stratton Project\npragma solidity >=0.4.22 <0.9.0;\nimport \"./move.sol\";\n\ncontract cryptomon {\n    string name = \"\";\n    uint32 attack = 0;\n    uint32 defense = 0;\n    uint32 hp = 0;\n    address owner;\n    move[] attacks;\n\n    constructor(string memory name_, uint32 attack_, uint32 defense_, uint32 hp_, address owner_) {\n        name = name_;\n        attack = attack_;\n        defense = defense_;\n        hp = hp_;\n        owner = owner_;\n    }\n\n    function addMove(move m) public {\n        attacks.push(m);\n    }\n\n    function printName() public view returns (string memory name_) { name_= name; }\n}",
  "sourcePath": "/Users/collinstratton/Google Drive/School/GCU/Fall 2021 - Spring 2022/CST-461/CST-461/Cryptomon/contracts/cryptomon.sol",
  "compiler": {
    "name": "solc",
    "version": "0.8.11+commit.d7f03943.Emscripten.clang"
  },
  "schemaVersion": "3.4.4",
  "updatedAt": "2022-04-15T23:26:34.379Z",
  "networkType": "ethereum",
  "devdoc": {
    "kind": "dev",
    "methods": {},
    "version": 1
  },
  "userdoc": {
    "kind": "user",
    "methods": {},
    "version": 1
  }
}