{
  "contractName": "basicMath",
  "abi": [
    {
      "constant": true,
      "inputs": [
        {
          "internalType": "uint256",
          "name": "_numberA",
          "type": "uint256"
        },
        {
          "internalType": "uint256",
          "name": "_numberB",
          "type": "uint256"
        }
      ],
      "name": "add",
      "outputs": [
        {
          "internalType": "uint256",
          "name": "",
          "type": "uint256"
        }
      ],
      "payable": false,
      "stateMutability": "pure",
      "type": "function"
    }
  ],
  "bytecode": "0x608060405234801561001057600080fd5b5060b88061001f6000396000f3fe6080604052348015600f57600080fd5b506004361060285760003560e01c8063771602f714602d575b600080fd5b606060048036036040811015604157600080fd5b8101908080359060200190929190803590602001909291905050506076565b6040518082815260200191505060405180910390f35b600081830190509291505056fea265627a7a723158206584dee5d13c22c02fa59304dec294564dc166473aa9dfb942db86c58c45a08364736f6c63430005100032",
  "source": "pragma solidity >=0.4.21 <0.6.0;\r\n\r\ncontract basicMath {\r\n    uint256 constant private MAX_UINT256 = 2**256 - 1;\r\n\r\n    function add(uint256 _numberA, uint256 _numberB) public pure returns(uint256) {\r\n        return _numberA + _numberB;\r\n    }\r\n}",
  "sourcePath": "C:\\Users\\logan\\Desktop\\(2022 Spring) CST - 461\\Smart Contracts\\contracts\\basicMath.sol",
  "compiler": {
    "name": "solc",
    "version": "0.5.16+commit.9c3226ce.Emscripten.clang"
  },
  "schemaVersion": "3.4.4",
  "updatedAt": "2022-02-02T06:18:35.995Z",
  "devdoc": {
    "methods": {}
  },
  "userdoc": {
    "methods": {}
  }
}