{
  "contractName": "supplyChain",
  "abi": [
    {
      "anonymous": false,
      "inputs": [
        {
          "indexed": false,
          "internalType": "uint32",
          "name": "productId",
          "type": "uint32"
        }
      ],
      "name": "TransferOwnership",
      "type": "event"
    },
    {
      "constant": true,
      "inputs": [
        {
          "internalType": "uint256",
          "name": "",
          "type": "uint256"
        }
      ],
      "name": "locations",
      "outputs": [
        {
          "internalType": "string",
          "name": "",
          "type": "string"
        }
      ],
      "payable": false,
      "stateMutability": "view",
      "type": "function"
    },
    {
      "constant": true,
      "inputs": [],
      "name": "order_id",
      "outputs": [
        {
          "internalType": "uint32",
          "name": "",
          "type": "uint32"
        }
      ],
      "payable": false,
      "stateMutability": "view",
      "type": "function"
    },
    {
      "constant": true,
      "inputs": [],
      "name": "owner_id",
      "outputs": [
        {
          "internalType": "uint32",
          "name": "",
          "type": "uint32"
        }
      ],
      "payable": false,
      "stateMutability": "view",
      "type": "function"
    },
    {
      "constant": true,
      "inputs": [
        {
          "internalType": "uint32",
          "name": "",
          "type": "uint32"
        }
      ],
      "name": "ownerships",
      "outputs": [
        {
          "internalType": "uint32",
          "name": "productId",
          "type": "uint32"
        },
        {
          "internalType": "uint32",
          "name": "ownerId",
          "type": "uint32"
        },
        {
          "internalType": "uint32",
          "name": "trxTimeStamp",
          "type": "uint32"
        },
        {
          "internalType": "address",
          "name": "productOwner",
          "type": "address"
        }
      ],
      "payable": false,
      "stateMutability": "view",
      "type": "function"
    },
    {
      "constant": true,
      "inputs": [],
      "name": "participant_id",
      "outputs": [
        {
          "internalType": "uint32",
          "name": "",
          "type": "uint32"
        }
      ],
      "payable": false,
      "stateMutability": "view",
      "type": "function"
    },
    {
      "constant": true,
      "inputs": [
        {
          "internalType": "uint32",
          "name": "",
          "type": "uint32"
        }
      ],
      "name": "participants",
      "outputs": [
        {
          "internalType": "string",
          "name": "userName",
          "type": "string"
        },
        {
          "internalType": "string",
          "name": "password",
          "type": "string"
        },
        {
          "internalType": "string",
          "name": "participantType",
          "type": "string"
        },
        {
          "internalType": "address",
          "name": "participantAddress",
          "type": "address"
        }
      ],
      "payable": false,
      "stateMutability": "view",
      "type": "function"
    },
    {
      "constant": true,
      "inputs": [
        {
          "internalType": "uint32",
          "name": "",
          "type": "uint32"
        },
        {
          "internalType": "uint256",
          "name": "",
          "type": "uint256"
        }
      ],
      "name": "productTrack",
      "outputs": [
        {
          "internalType": "uint32",
          "name": "",
          "type": "uint32"
        }
      ],
      "payable": false,
      "stateMutability": "view",
      "type": "function"
    },
    {
      "constant": true,
      "inputs": [],
      "name": "product_id",
      "outputs": [
        {
          "internalType": "uint32",
          "name": "",
          "type": "uint32"
        }
      ],
      "payable": false,
      "stateMutability": "view",
      "type": "function"
    },
    {
      "constant": true,
      "inputs": [
        {
          "internalType": "uint32",
          "name": "",
          "type": "uint32"
        }
      ],
      "name": "products",
      "outputs": [
        {
          "internalType": "string",
          "name": "modelNumber",
          "type": "string"
        },
        {
          "internalType": "string",
          "name": "partNumber",
          "type": "string"
        },
        {
          "internalType": "string",
          "name": "serialNumber",
          "type": "string"
        },
        {
          "internalType": "address",
          "name": "productOwner",
          "type": "address"
        },
        {
          "internalType": "uint32",
          "name": "cost",
          "type": "uint32"
        },
        {
          "internalType": "uint32",
          "name": "mfgTimeStamp",
          "type": "uint32"
        }
      ],
      "payable": false,
      "stateMutability": "view",
      "type": "function"
    },
    {
      "constant": true,
      "inputs": [],
      "name": "store_id",
      "outputs": [
        {
          "internalType": "uint32",
          "name": "",
          "type": "uint32"
        }
      ],
      "payable": false,
      "stateMutability": "view",
      "type": "function"
    },
    {
      "constant": true,
      "inputs": [
        {
          "internalType": "uint256",
          "name": "",
          "type": "uint256"
        }
      ],
      "name": "tempInventory",
      "outputs": [
        {
          "internalType": "string",
          "name": "",
          "type": "string"
        }
      ],
      "payable": false,
      "stateMutability": "view",
      "type": "function"
    },
    {
      "constant": true,
      "inputs": [],
      "name": "truck_id",
      "outputs": [
        {
          "internalType": "uint32",
          "name": "",
          "type": "uint32"
        }
      ],
      "payable": false,
      "stateMutability": "view",
      "type": "function"
    },
    {
      "constant": false,
      "inputs": [
        {
          "internalType": "string",
          "name": "l",
          "type": "string"
        }
      ],
      "name": "newStore",
      "outputs": [
        {
          "internalType": "string",
          "name": "",
          "type": "string"
        }
      ],
      "payable": false,
      "stateMutability": "nonpayable",
      "type": "function"
    },
    {
      "constant": false,
      "inputs": [
        {
          "internalType": "uint32",
          "name": "storeID",
          "type": "uint32"
        },
        {
          "internalType": "uint256",
          "name": "quantity",
          "type": "uint256"
        },
        {
          "internalType": "string",
          "name": "modelNumber_",
          "type": "string"
        },
        {
          "internalType": "string",
          "name": "partNumber_",
          "type": "string"
        },
        {
          "internalType": "string",
          "name": "serialNumber_",
          "type": "string"
        },
        {
          "internalType": "uint32",
          "name": "cost_",
          "type": "uint32"
        },
        {
          "internalType": "uint32",
          "name": "stamp_",
          "type": "uint32"
        }
      ],
      "name": "addStock",
      "outputs": [],
      "payable": false,
      "stateMutability": "nonpayable",
      "type": "function"
    },
    {
      "constant": false,
      "inputs": [
        {
          "internalType": "uint32",
          "name": "storeID",
          "type": "uint32"
        }
      ],
      "name": "getStock",
      "outputs": [],
      "payable": false,
      "stateMutability": "nonpayable",
      "type": "function"
    },
    {
      "constant": true,
      "inputs": [
        {
          "internalType": "uint32",
          "name": "id",
          "type": "uint32"
        }
      ],
      "name": "printStock",
      "outputs": [
        {
          "internalType": "string[]",
          "name": "tempInventory",
          "type": "string[]"
        }
      ],
      "payable": false,
      "stateMutability": "view",
      "type": "function"
    },
    {
      "constant": false,
      "inputs": [
        {
          "internalType": "uint256",
          "name": "q",
          "type": "uint256"
        },
        {
          "internalType": "uint32",
          "name": "productID",
          "type": "uint32"
        },
        {
          "internalType": "uint256",
          "name": "time",
          "type": "uint256"
        },
        {
          "internalType": "string",
          "name": "l",
          "type": "string"
        }
      ],
      "name": "newShipment",
      "outputs": [
        {
          "internalType": "string",
          "name": "",
          "type": "string"
        }
      ],
      "payable": false,
      "stateMutability": "nonpayable",
      "type": "function"
    },
    {
      "constant": false,
      "inputs": [
        {
          "internalType": "string",
          "name": "name",
          "type": "string"
        }
      ],
      "name": "addLocation",
      "outputs": [],
      "payable": false,
      "stateMutability": "nonpayable",
      "type": "function"
    },
    {
      "constant": true,
      "inputs": [
        {
          "internalType": "uint32",
          "name": "truckID",
          "type": "uint32"
        },
        {
          "internalType": "string",
          "name": "location",
          "type": "string"
        }
      ],
      "name": "ship",
      "outputs": [
        {
          "internalType": "bool",
          "name": "",
          "type": "bool"
        }
      ],
      "payable": false,
      "stateMutability": "view",
      "type": "function"
    },
    {
      "constant": false,
      "inputs": [
        {
          "internalType": "string",
          "name": "_name",
          "type": "string"
        },
        {
          "internalType": "string",
          "name": "_pass",
          "type": "string"
        },
        {
          "internalType": "address",
          "name": "_pAdd",
          "type": "address"
        },
        {
          "internalType": "string",
          "name": "_pType",
          "type": "string"
        }
      ],
      "name": "addParticipant",
      "outputs": [
        {
          "internalType": "uint32",
          "name": "",
          "type": "uint32"
        }
      ],
      "payable": false,
      "stateMutability": "nonpayable",
      "type": "function"
    },
    {
      "constant": true,
      "inputs": [
        {
          "internalType": "uint32",
          "name": "_participant_id",
          "type": "uint32"
        }
      ],
      "name": "getParticipant",
      "outputs": [
        {
          "internalType": "string",
          "name": "",
          "type": "string"
        },
        {
          "internalType": "address",
          "name": "",
          "type": "address"
        },
        {
          "internalType": "string",
          "name": "",
          "type": "string"
        }
      ],
      "payable": false,
      "stateMutability": "view",
      "type": "function"
    },
    {
      "constant": false,
      "inputs": [
        {
          "internalType": "uint32",
          "name": "_ownerId",
          "type": "uint32"
        },
        {
          "internalType": "string",
          "name": "_modelNumber",
          "type": "string"
        },
        {
          "internalType": "string",
          "name": "_partNumber",
          "type": "string"
        },
        {
          "internalType": "string",
          "name": "_serialNumber",
          "type": "string"
        },
        {
          "internalType": "uint32",
          "name": "_productCost",
          "type": "uint32"
        }
      ],
      "name": "addProduct",
      "outputs": [
        {
          "internalType": "uint32",
          "name": "",
          "type": "uint32"
        }
      ],
      "payable": false,
      "stateMutability": "nonpayable",
      "type": "function"
    },
    {
      "constant": true,
      "inputs": [
        {
          "internalType": "uint32",
          "name": "_productId",
          "type": "uint32"
        }
      ],
      "name": "getProduct",
      "outputs": [
        {
          "internalType": "string",
          "name": "",
          "type": "string"
        },
        {
          "internalType": "string",
          "name": "",
          "type": "string"
        },
        {
          "internalType": "string",
          "name": "",
          "type": "string"
        },
        {
          "internalType": "uint32",
          "name": "",
          "type": "uint32"
        },
        {
          "internalType": "address",
          "name": "",
          "type": "address"
        },
        {
          "internalType": "uint32",
          "name": "",
          "type": "uint32"
        }
      ],
      "payable": false,
      "stateMutability": "view",
      "type": "function"
    },
    {
      "constant": false,
      "inputs": [
        {
          "internalType": "uint32",
          "name": "_user1Id",
          "type": "uint32"
        },
        {
          "internalType": "uint32",
          "name": "_user2Id",
          "type": "uint32"
        },
        {
          "internalType": "uint32",
          "name": "_prodId",
          "type": "uint32"
        }
      ],
      "name": "newOwner",
      "outputs": [
        {
          "internalType": "bool",
          "name": "",
          "type": "bool"
        }
      ],
      "payable": false,
      "stateMutability": "nonpayable",
      "type": "function"
    },
    {
      "constant": true,
      "inputs": [
        {
          "internalType": "uint32",
          "name": "_prodId",
          "type": "uint32"
        }
      ],
      "name": "getProvenance",
      "outputs": [
        {
          "internalType": "uint32[]",
          "name": "",
          "type": "uint32[]"
        }
      ],
      "payable": false,
      "stateMutability": "view",
      "type": "function"
    },
    {
      "constant": true,
      "inputs": [
        {
          "internalType": "uint32",
          "name": "_regId",
          "type": "uint32"
        }
      ],
      "name": "getOwnership",
      "outputs": [
        {
          "internalType": "uint32",
          "name": "",
          "type": "uint32"
        },
        {
          "internalType": "uint32",
          "name": "",
          "type": "uint32"
        },
        {
          "internalType": "address",
          "name": "",
          "type": "address"
        },
        {
          "internalType": "uint32",
          "name": "",
          "type": "uint32"
        }
      ],
      "payable": false,
      "stateMutability": "view",
      "type": "function"
    },
    {
      "constant": true,
      "inputs": [
        {
          "internalType": "uint32",
          "name": "_uid",
          "type": "uint32"
        },
        {
          "internalType": "string",
          "name": "_uname",
          "type": "string"
        },
        {
          "internalType": "string",
          "name": "_pass",
          "type": "string"
        },
        {
          "internalType": "string",
          "name": "_utype",
          "type": "string"
        }
      ],
      "name": "authenticateParticipant",
      "outputs": [
        {
          "internalType": "bool",
          "name": "",
          "type": "bool"
        }
      ],
      "payable": false,
      "stateMutability": "view",
      "type": "function"
    }
  ],
  "bytecode": "0x608060405260008060006101000a81548163ffffffff021916908363ffffffff16021790555060008060046101000a81548163ffffffff021916908363ffffffff16021790555060008060086101000a81548163ffffffff021916908363ffffffff160217905550600080600c6101000a81548163ffffffff021916908363ffffffff1602179055506000600260006101000a81548163ffffffff021916908363ffffffff1602179055506000600460006101000a81548163ffffffff021916908363ffffffff1602179055503480156100d857600080fd5b506142f7806100e86000396000f3fe608060405234801561001057600080fd5b50600436106101a95760003560e01c80638f5ebf71116100f9578063bf712fd611610097578063e95797d011610071578063e95797d01461058f578063eab0a479146105bf578063ebf43a7e146105dd578063fc2da9101461060d576101a9565b8063bf712fd6146104f7578063c85695651461052c578063df6d23f11461055c576101a9565b8063a8d83dc6116100d3578063a8d83dc61461046f578063aec438a71461048d578063b9791425146104a9578063b9e0db35146104c7576101a9565b80638f5ebf71146103ec57806397261eeb1461040a578063a638ac491461043a576101a9565b80635063210411610166578063721b574311610140578063721b5743146103265780637bb94782146103565780637d0a9ac91461038657806381e15610146103b9576101a9565b806350632104146102bc5780635fddb088146102ec5780637118eb4d14610308576101a9565b80631a074802146101ae5780632063a573146101de5780632e9d5284146101fa5780633b26a65d1461022a57806341193b211461025c57806342bf383c1461028c575b600080fd5b6101c860048036036101c39190810190613809565b61062b565b6040516101d59190613ffc565b60405180910390f35b6101f860048036036101f39190810190613622565b610671565b005b610214600480360361020f919081019061392b565b6107f1565b6040516102219190613df2565b60405180910390f35b610244600480360361023f9190810190613622565b611632565b60405161025393929190613e51565b60405180910390f35b61027660048036036102719190810190613622565b611804565b6040516102839190613dae565b60405180910390f35b6102a660048036036102a1919081019061364b565b61180b565b6040516102b39190613df2565b60405180910390f35b6102d660048036036102d1919081019061374a565b6118de565b6040516102e39190613ffc565b60405180910390f35b61030660048036036103019190810190613492565b611b60565b005b610310611ba2565b60405161031d9190613ffc565b60405180910390f35b610340600480360361033b919081019061369f565b611bb8565b60405161034d9190613df2565b60405180910390f35b610370600480360361036b91908101906135a7565b611d31565b60405161037d9190613e2f565b60405180910390f35b6103a0600480360361039b9190810190613622565b612055565b6040516103b09493929190613f0c565b60405180910390f35b6103d360048036036103ce9190810190613622565b61226d565b6040516103e3949392919061405c565b60405180910390f35b6103f46122ed565b6040516104019190613ffc565b60405180910390f35b610424600480360361041f919081019061357e565b612303565b6040516104319190613e0d565b60405180910390f35b610454600480360361044f9190810190613622565b6123bc565b60405161046696959493929190613e96565b60405180910390f35b6104776126be565b6040516104849190613ffc565b60405180910390f35b6104a760048036036104a29190810190613845565b6126d4565b005b6104b16128b6565b6040516104be9190613ffc565b60405180910390f35b6104e160048036036104dc919081019061357e565b6128cc565b6040516104ee9190613e0d565b60405180910390f35b610511600480360361050c9190810190613622565b612985565b60405161052396959493929190613f66565b60405180910390f35b61054660048036036105419190810190613622565b612bc9565b6040516105539190613dd0565b60405180910390f35b61057660048036036105719190810190613622565b612c6c565b6040516105869493929190614017565b60405180910390f35b6105a960048036036105a49190810190613492565b612d92565b6040516105b69190613e2f565b60405180910390f35b6105c7612ed5565b6040516105d49190613ffc565b60405180910390f35b6105f760048036036105f291908101906134d3565b612eea565b6040516106049190613ffc565b60405180910390f35b61061561303b565b6040516106229190613ffc565b60405180910390f35b600b602052816000526040600020818154811061064457fe5b9060005260206000209060089182820401919006600402915091509054906101000a900463ffffffff1681565b6003600061067f9190613051565b8063ffffffff16600860008363ffffffff1663ffffffff16815260200190815260200160002060010154141561077d5760008090505b600860008363ffffffff1663ffffffff16815260200190815260200160002060030180549050811015610777576003600860008463ffffffff1663ffffffff168152602001908152602001600020600301828154811061071157fe5b90600052602060002090600402016002019080600181540180825580915050906001820390600052602060002001600090919290919091509080546001816001161561010002031660029004610768929190613072565b505080806001019150506106b5565b506107ee565b60038060018154018082558091505090600182039060005260206000200160006040518060400160405280600881526020017f4e6f204974656d73000000000000000000000000000000000000000000000000815250909190915090805190602001906107eb9291906130f9565b50505b50565b600081600560008263ffffffff1663ffffffff16815260200190815260200160002060030160009054906101000a900473ffffffffffffffffffffffffffffffffffffffff1673ffffffffffffffffffffffffffffffffffffffff163373ffffffffffffffffffffffffffffffffffffffff16146108a4576040517f08c379a000000000000000000000000000000000000000000000000000000000815260040161089b90613fdc565b60405180910390fd5b6108ac613179565b600660008763ffffffff1663ffffffff168152602001908152602001600020604051806080016040529081600082018054600181600116156101000203166002900480601f01602080910402602001604051908101604052809291908181526020018280546001816001161561010002031660029004801561096f5780601f106109445761010080835404028352916020019161096f565b820191906000526020600020905b81548152906001019060200180831161095257829003601f168201915b50505050508152602001600182018054600181600116156101000203166002900480601f016020809104026020016040519081016040528092919081815260200182805460018160011615610100020316600290048015610a115780601f106109e657610100808354040283529160200191610a11565b820191906000526020600020905b8154815290600101906020018083116109f457829003601f168201915b50505050508152602001600282018054600181600116156101000203166002900480601f016020809104026020016040519081016040528092919081815260200182805460018160011615610100020316600290048015610ab35780601f10610a8857610100808354040283529160200191610ab3565b820191906000526020600020905b815481529060010190602001808311610a9657829003601f168201915b505050505081526020016003820160009054906101000a900473ffffffffffffffffffffffffffffffffffffffff1673ffffffffffffffffffffffffffffffffffffffff1673ffffffffffffffffffffffffffffffffffffffff16815250509050610b1c613179565b600660008763ffffffff1663ffffffff168152602001908152602001600020604051806080016040529081600082018054600181600116156101000203166002900480601f016020809104026020016040519081016040528092919081815260200182805460018160011615610100020316600290048015610bdf5780601f10610bb457610100808354040283529160200191610bdf565b820191906000526020600020905b815481529060010190602001808311610bc257829003601f168201915b50505050508152602001600182018054600181600116156101000203166002900480601f016020809104026020016040519081016040528092919081815260200182805460018160011615610100020316600290048015610c815780601f10610c5657610100808354040283529160200191610c81565b820191906000526020600020905b815481529060010190602001808311610c6457829003601f168201915b50505050508152602001600282018054600181600116156101000203166002900480601f016020809104026020016040519081016040528092919081815260200182805460018160011615610100020316600290048015610d235780601f10610cf857610100808354040283529160200191610d23565b820191906000526020600020905b815481529060010190602001808311610d0657829003601f168201915b505050505081526020016003820160009054906101000a900473ffffffffffffffffffffffffffffffffffffffff1673ffffffffffffffffffffffffffffffffffffffff1673ffffffffffffffffffffffffffffffffffffffff16815250509050600080600881819054906101000a900463ffffffff168092919060010191906101000a81548163ffffffff021916908363ffffffff1602179055509050604051610dcd90613d99565b60405180910390208360400151604051602001610dea9190613d2a565b60405160208183030381529060405280519060200120148015610e495750604051610e1490613d6f565b60405180910390208260400151604051602001610e319190613d2a565b60405160208183030381529060405280519060200120145b1561108c5785600a60008363ffffffff1663ffffffff16815260200190815260200160002060000160006101000a81548163ffffffff021916908363ffffffff1602179055508160600151600a60008363ffffffff1663ffffffff168152602001908152602001600020600001600c6101000a81548173ffffffffffffffffffffffffffffffffffffffff021916908373ffffffffffffffffffffffffffffffffffffffff16021790555086600a60008363ffffffff1663ffffffff16815260200190815260200160002060000160046101000a81548163ffffffff021916908363ffffffff16021790555042600a60008363ffffffff1663ffffffff16815260200190815260200160002060000160086101000a81548163ffffffff021916908363ffffffff1602179055508160600151600560008863ffffffff1663ffffffff16815260200190815260200160002060030160006101000a81548173ffffffffffffffffffffffffffffffffffffffff021916908373ffffffffffffffffffffffffffffffffffffffff160217905550600b60008763ffffffff1663ffffffff16815260200190815260200160002081908060018154018082558091505090600182039060005260206000209060089182820401919006600402909192909190916101000a81548163ffffffff021916908363ffffffff160217905550507fa5470ac012c6e9dc500e62b1d3de0de58db49b3ab7cfebbfb126d9abd854199b866040516110789190613ffc565b60405180910390a16001945050505061162a565b60405161109890613d6f565b604051809103902083604001516040516020016110b59190613d2a565b6040516020818303038152906040528051906020012014801561111457506040516110df90613d6f565b604051809103902082604001516040516020016110fc9190613d2a565b60405160208183030381529060405280519060200120145b156113575785600a60008363ffffffff1663ffffffff16815260200190815260200160002060000160006101000a81548163ffffffff021916908363ffffffff1602179055508160600151600a60008363ffffffff1663ffffffff168152602001908152602001600020600001600c6101000a81548173ffffffffffffffffffffffffffffffffffffffff021916908373ffffffffffffffffffffffffffffffffffffffff16021790555086600a60008363ffffffff1663ffffffff16815260200190815260200160002060000160046101000a81548163ffffffff021916908363ffffffff16021790555042600a60008363ffffffff1663ffffffff16815260200190815260200160002060000160086101000a81548163ffffffff021916908363ffffffff1602179055508160600151600560008863ffffffff1663ffffffff16815260200190815260200160002060030160006101000a81548173ffffffffffffffffffffffffffffffffffffffff021916908373ffffffffffffffffffffffffffffffffffffffff160217905550600b60008763ffffffff1663ffffffff16815260200190815260200160002081908060018154018082558091505090600182039060005260206000209060089182820401919006600402909192909190916101000a81548163ffffffff021916908363ffffffff160217905550507fa5470ac012c6e9dc500e62b1d3de0de58db49b3ab7cfebbfb126d9abd854199b866040516113439190613ffc565b60405180910390a16001945050505061162a565b60405161136390613d6f565b604051809103902083604001516040516020016113809190613d2a565b604051602081830303815290604052805190602001201480156113df57506040516113aa90613d84565b604051809103902082604001516040516020016113c79190613d2a565b60405160208183030381529060405280519060200120145b156116225785600a60008363ffffffff1663ffffffff16815260200190815260200160002060000160006101000a81548163ffffffff021916908363ffffffff1602179055508160600151600a60008363ffffffff1663ffffffff168152602001908152602001600020600001600c6101000a81548173ffffffffffffffffffffffffffffffffffffffff021916908373ffffffffffffffffffffffffffffffffffffffff16021790555086600a60008363ffffffff1663ffffffff16815260200190815260200160002060000160046101000a81548163ffffffff021916908363ffffffff16021790555042600a60008363ffffffff1663ffffffff16815260200190815260200160002060000160086101000a81548163ffffffff021916908363ffffffff1602179055508160600151600560008863ffffffff1663ffffffff16815260200190815260200160002060030160006101000a81548173ffffffffffffffffffffffffffffffffffffffff021916908373ffffffffffffffffffffffffffffffffffffffff160217905550600b60008763ffffffff1663ffffffff16815260200190815260200160002081908060018154018082558091505090600182039060005260206000209060089182820401919006600402909192909190916101000a81548163ffffffff021916908363ffffffff160217905550507fa5470ac012c6e9dc500e62b1d3de0de58db49b3ab7cfebbfb126d9abd854199b8660405161160e9190613ffc565b60405180910390a16001945050505061162a565b600094505050505b509392505050565b606060006060600660008563ffffffff1663ffffffff168152602001908152602001600020600001600660008663ffffffff1663ffffffff16815260200190815260200160002060030160009054906101000a900473ffffffffffffffffffffffffffffffffffffffff16600660008763ffffffff1663ffffffff168152602001908152602001600020600201828054600181600116156101000203166002900480601f0160208091040260200160405190810160405280929190818152602001828054600181600116156101000203166002900480156117545780601f1061172957610100808354040283529160200191611754565b820191906000526020600020905b81548152906001019060200180831161173757829003601f168201915b50505050509250808054600181600116156101000203166002900480601f0160208091040260200160405190810160405280929190818152602001828054600181600116156101000203166002900480156117f05780601f106117c5576101008083540402835291602001916117f0565b820191906000526020600020905b8154815290600101906020018083116117d357829003601f168201915b505050505090509250925092509193909250565b6060919050565b60008263ffffffff16600760008563ffffffff1663ffffffff1681526020019081526020016000206000015414156118d35760008090505b6001805490508110156118d157826040516020016118619190613d41565b604051602081830303815290604052805190602001206001828154811061188457fe5b9060005260206000200160405160200161189e9190613d58565b6040516020818303038152906040528051906020012014156118c45760019150506118d8565b8080600101915050611843565b505b600090505b92915050565b60006040516118ec90613d99565b6040518091039020600660008863ffffffff1663ffffffff1681526020019081526020016000206002016040516020016119269190613d58565b604051602081830303815290604052805190602001201415611b5257600080600081819054906101000a900463ffffffff168092919060010191906101000a81548163ffffffff021916908363ffffffff160217905550905085600560008363ffffffff1663ffffffff16815260200190815260200160002060000190805190602001906119b59291906130f9565b5084600560008363ffffffff1663ffffffff16815260200190815260200160002060010190805190602001906119ec9291906130f9565b5083600560008363ffffffff1663ffffffff1681526020019081526020016000206002019080519060200190611a239291906130f9565b5082600560008363ffffffff1663ffffffff16815260200190815260200160002060030160146101000a81548163ffffffff021916908363ffffffff160217905550600660008863ffffffff1663ffffffff16815260200190815260200160002060030160009054906101000a900473ffffffffffffffffffffffffffffffffffffffff16600560008363ffffffff1663ffffffff16815260200190815260200160002060030160006101000a81548173ffffffffffffffffffffffffffffffffffffffff021916908373ffffffffffffffffffffffffffffffffffffffff16021790555042600560008363ffffffff1663ffffffff16815260200190815260200160002060030160186101000a81548163ffffffff021916908363ffffffff16021790555080915050611b57565b600090505b95945050505050565b6001819080600181540180825580915050906001820390600052602060002001600090919290919091509080519060200190611b9d9291906130f9565b505050565b600260009054906101000a900463ffffffff1681565b600081604051602001611bcb9190613d41565b60405160208183030381529060405280519060200120600660008763ffffffff1663ffffffff168152602001908152602001600020600201604051602001611c139190613d58565b604051602081830303815290604052805190602001201415611d245783604051602001611c409190613d41565b60405160208183030381529060405280519060200120600660008763ffffffff1663ffffffff168152602001908152602001600020600001604051602001611c889190613d58565b604051602081830303815290604052805190602001201415611d235782604051602001611cb59190613d41565b60405160208183030381529060405280519060200120600660008763ffffffff1663ffffffff168152602001908152602001600020600101604051602001611cfd9190613d58565b604051602081830303815290604052805190602001201415611d225760019050611d29565b5b5b600090505b949350505050565b6060600080600c81819054906101000a900463ffffffff168092919060010191906101000a81548163ffffffff021916908363ffffffff16021790555090508063ffffffff16600760008363ffffffff1663ffffffff1681526020019081526020016000206000018190555085600760008363ffffffff1663ffffffff16815260200190815260200160002060010181905550600560008663ffffffff1663ffffffff168152602001908152602001600020600760008363ffffffff1663ffffffff16815260200190815260200160002060020160008201816000019080546001816001161561010002031660029004611e2c9291906131b7565b5060018201816001019080546001816001161561010002031660029004611e549291906131b7565b5060028201816002019080546001816001161561010002031660029004611e7c9291906131b7565b506003820160009054906101000a900473ffffffffffffffffffffffffffffffffffffffff168160030160006101000a81548173ffffffffffffffffffffffffffffffffffffffff021916908373ffffffffffffffffffffffffffffffffffffffff1602179055506003820160149054906101000a900463ffffffff168160030160146101000a81548163ffffffff021916908363ffffffff1602179055506003820160189054906101000a900463ffffffff168160030160186101000a81548163ffffffff021916908363ffffffff16021790555090505033600760008363ffffffff1663ffffffff16815260200190815260200160002060080160006101000a81548173ffffffffffffffffffffffffffffffffffffffff021916908373ffffffffffffffffffffffffffffffffffffffff16021790555083600760008363ffffffff1663ffffffff1681526020019081526020016000206006018190555082600760008363ffffffff1663ffffffff16815260200190815260200160002060070190805190602001906120139291906130f9565b506040518060400160405280601481526020017f4e657720536869706d656e742043726561746564000000000000000000000000815250915050949350505050565b6006602052806000526040600020600091509050806000018054600181600116156101000203166002900480601f0160208091040260200160405190810160405280929190818152602001828054600181600116156101000203166002900480156121015780601f106120d657610100808354040283529160200191612101565b820191906000526020600020905b8154815290600101906020018083116120e457829003601f168201915b505050505090806001018054600181600116156101000203166002900480601f01602080910402602001604051908101604052809291908181526020018280546001816001161561010002031660029004801561219f5780601f106121745761010080835404028352916020019161219f565b820191906000526020600020905b81548152906001019060200180831161218257829003601f168201915b505050505090806002018054600181600116156101000203166002900480601f01602080910402602001604051908101604052809291908181526020018280546001816001161561010002031660029004801561223d5780601f106122125761010080835404028352916020019161223d565b820191906000526020600020905b81548152906001019060200180831161222057829003601f168201915b5050505050908060030160009054906101000a900473ffffffffffffffffffffffffffffffffffffffff16905084565b600a6020528060005260406000206000915090508060000160009054906101000a900463ffffffff16908060000160049054906101000a900463ffffffff16908060000160089054906101000a900463ffffffff169080600001600c9054906101000a900473ffffffffffffffffffffffffffffffffffffffff16905084565b600060089054906101000a900463ffffffff1681565b6003818154811061231057fe5b906000526020600020016000915090508054600181600116156101000203166002900480601f0160208091040260200160405190810160405280929190818152602001828054600181600116156101000203166002900480156123b45780601f10612389576101008083540402835291602001916123b4565b820191906000526020600020905b81548152906001019060200180831161239757829003601f168201915b505050505081565b60608060606000806000600560008863ffffffff1663ffffffff168152602001908152602001600020600001600560008963ffffffff1663ffffffff168152602001908152602001600020600101600560008a63ffffffff1663ffffffff168152602001908152602001600020600201600560008b63ffffffff1663ffffffff16815260200190815260200160002060030160149054906101000a900463ffffffff16600560008c63ffffffff1663ffffffff16815260200190815260200160002060030160009054906101000a900473ffffffffffffffffffffffffffffffffffffffff16600560008d63ffffffff1663ffffffff16815260200190815260200160002060030160189054906101000a900463ffffffff16858054600181600116156101000203166002900480601f01602080910402602001604051908101604052809291908181526020018280546001816001161561010002031660029004801561256a5780601f1061253f5761010080835404028352916020019161256a565b820191906000526020600020905b81548152906001019060200180831161254d57829003601f168201915b50505050509550848054600181600116156101000203166002900480601f0160208091040260200160405190810160405280929190818152602001828054600181600116156101000203166002900480156126065780601f106125db57610100808354040283529160200191612606565b820191906000526020600020905b8154815290600101906020018083116125e957829003601f168201915b50505050509450838054600181600116156101000203166002900480601f0160208091040260200160405190810160405280929190818152602001828054600181600116156101000203166002900480156126a25780601f10612677576101008083540402835291602001916126a2565b820191906000526020600020905b81548152906001019060200180831161268557829003601f168201915b5050505050935095509550955095509550955091939550919395565b6000600c9054906101000a900463ffffffff1681565b6126dc61323e565b6040518060c00160405280878152602001868152602001858152602001600860008b63ffffffff1663ffffffff16815260200190815260200160002060000160009054906101000a900473ffffffffffffffffffffffffffffffffffffffff1673ffffffffffffffffffffffffffffffffffffffff1681526020018463ffffffff1681526020018363ffffffff168152509050600860008963ffffffff1663ffffffff168152602001908152602001600020600301819080600181540180825580915050906001820390600052602060002090600402016000909192909190915060008201518160000190805190602001906127d9929190613296565b5060208201518160010190805190602001906127f6929190613296565b506040820151816002019080519060200190612813929190613296565b5060608201518160030160006101000a81548173ffffffffffffffffffffffffffffffffffffffff021916908373ffffffffffffffffffffffffffffffffffffffff16021790555060808201518160030160146101000a81548163ffffffff021916908363ffffffff16021790555060a08201518160030160186101000a81548163ffffffff021916908363ffffffff1602179055505050505050505050505050565b600460009054906101000a900463ffffffff1681565b600181815481106128d957fe5b906000526020600020016000915090508054600181600116156101000203166002900480601f01602080910402602001604051908101604052809291908181526020018280546001816001161561010002031660029004801561297d5780601f106129525761010080835404028352916020019161297d565b820191906000526020600020905b81548152906001019060200180831161296057829003601f168201915b505050505081565b6005602052806000526040600020600091509050806000018054600181600116156101000203166002900480601f016020809104026020016040519081016040528092919081815260200182805460018160011615610100020316600290048015612a315780601f10612a0657610100808354040283529160200191612a31565b820191906000526020600020905b815481529060010190602001808311612a1457829003601f168201915b505050505090806001018054600181600116156101000203166002900480601f016020809104026020016040519081016040528092919081815260200182805460018160011615610100020316600290048015612acf5780601f10612aa457610100808354040283529160200191612acf565b820191906000526020600020905b815481529060010190602001808311612ab257829003601f168201915b505050505090806002018054600181600116156101000203166002900480601f016020809104026020016040519081016040528092919081815260200182805460018160011615610100020316600290048015612b6d5780601f10612b4257610100808354040283529160200191612b6d565b820191906000526020600020905b815481529060010190602001808311612b5057829003601f168201915b5050505050908060030160009054906101000a900473ffffffffffffffffffffffffffffffffffffffff16908060030160149054906101000a900463ffffffff16908060030160189054906101000a900463ffffffff16905086565b6060600b60008363ffffffff1663ffffffff168152602001908152602001600020805480602002602001604051908101604052809291908181526020018280548015612c6057602002820191906000526020600020906000905b82829054906101000a900463ffffffff1663ffffffff1681526020019060040190602082600301049283019260010382029150808411612c235790505b50505050509050919050565b600080600080612c7a613316565b600a60008763ffffffff1663ffffffff1681526020019081526020016000206040518060800160405290816000820160009054906101000a900463ffffffff1663ffffffff1663ffffffff1681526020016000820160049054906101000a900463ffffffff1663ffffffff1663ffffffff1681526020016000820160089054906101000a900463ffffffff1663ffffffff1663ffffffff16815260200160008201600c9054906101000a900473ffffffffffffffffffffffffffffffffffffffff1673ffffffffffffffffffffffffffffffffffffffff1673ffffffffffffffffffffffffffffffffffffffff1681525050905080600001518160200151826060015183604001519450945094509450509193509193565b606060006002600081819054906101000a900463ffffffff168092919060010191906101000a81548163ffffffff021916908363ffffffff16021790555090508063ffffffff16600860008363ffffffff1663ffffffff1681526020019081526020016000206001018190555033600860008363ffffffff1663ffffffff16815260200190815260200160002060000160006101000a81548173ffffffffffffffffffffffffffffffffffffffff021916908373ffffffffffffffffffffffffffffffffffffffff16021790555082600860008363ffffffff1663ffffffff1681526020019081526020016000206002019080519060200190612e969291906130f9565b506040518060400160405280601181526020017f4e65772073746f72652043726561746564000000000000000000000000000000815250915050919050565b6000809054906101000a900463ffffffff1681565b6000806000600481819054906101000a900463ffffffff168092919060010191906101000a81548163ffffffff021916908363ffffffff160217905550905085600660008363ffffffff1663ffffffff1681526020019081526020016000206000019080519060200190612f5f9291906130f9565b5084600660008363ffffffff1663ffffffff1681526020019081526020016000206001019080519060200190612f969291906130f9565b5083600660008363ffffffff1663ffffffff16815260200190815260200160002060030160006101000a81548173ffffffffffffffffffffffffffffffffffffffff021916908373ffffffffffffffffffffffffffffffffffffffff16021790555082600660008363ffffffff1663ffffffff168152602001908152602001600020600201908051906020019061302e9291906130f9565b5080915050949350505050565b600060049054906101000a900463ffffffff1681565b508054600082559060005260206000209081019061306f9190613366565b50565b828054600181600116156101000203166002900490600052602060002090601f016020900481019282601f106130ab57805485556130e8565b828001600101855582156130e857600052602060002091601f016020900482015b828111156130e75782548255916001019190600101906130cc565b5b5090506130f59190613392565b5090565b828054600181600116156101000203166002900490600052602060002090601f016020900481019282601f1061313a57805160ff1916838001178555613168565b82800160010185558215613168579182015b8281111561316757825182559160200191906001019061314c565b5b5090506131759190613392565b5090565b6040518060800160405280606081526020016060815260200160608152602001600073ffffffffffffffffffffffffffffffffffffffff1681525090565b828054600181600116156101000203166002900490600052602060002090601f016020900481019282601f106131f0578054855561322d565b8280016001018555821561322d57600052602060002091601f016020900482015b8281111561322c578254825591600101919060010190613211565b5b50905061323a9190613392565b5090565b6040518060c00160405280606081526020016060815260200160608152602001600073ffffffffffffffffffffffffffffffffffffffff168152602001600063ffffffff168152602001600063ffffffff1681525090565b828054600181600116156101000203166002900490600052602060002090601f016020900481019282601f106132d757805160ff1916838001178555613305565b82800160010185558215613305579182015b828111156133045782518255916020019190600101906132e9565b5b5090506133129190613392565b5090565b6040518060800160405280600063ffffffff168152602001600063ffffffff168152602001600063ffffffff168152602001600073ffffffffffffffffffffffffffffffffffffffff1681525090565b61338f91905b8082111561338b576000818161338291906133b7565b5060010161336c565b5090565b90565b6133b491905b808211156133b0576000816000905550600101613398565b5090565b90565b50805460018160011615610100020316600290046000825580601f106133dd57506133fc565b601f0160209004906000526020600020908101906133fb9190613392565b5b50565b60008135905061340e8161426f565b92915050565b600082601f83011261342557600080fd5b8135613438613433826140ce565b6140a1565b9150808252602083016020830185838301111561345457600080fd5b61345f83828461421c565b50505092915050565b60008135905061347781614286565b92915050565b60008135905061348c8161429d565b92915050565b6000602082840312156134a457600080fd5b600082013567ffffffffffffffff8111156134be57600080fd5b6134ca84828501613414565b91505092915050565b600080600080608085870312156134e957600080fd5b600085013567ffffffffffffffff81111561350357600080fd5b61350f87828801613414565b945050602085013567ffffffffffffffff81111561352c57600080fd5b61353887828801613414565b9350506040613549878288016133ff565b925050606085013567ffffffffffffffff81111561356657600080fd5b61357287828801613414565b91505092959194509250565b60006020828403121561359057600080fd5b600061359e84828501613468565b91505092915050565b600080600080608085870312156135bd57600080fd5b60006135cb87828801613468565b94505060206135dc8782880161347d565b93505060406135ed87828801613468565b925050606085013567ffffffffffffffff81111561360a57600080fd5b61361687828801613414565b91505092959194509250565b60006020828403121561363457600080fd5b60006136428482850161347d565b91505092915050565b6000806040838503121561365e57600080fd5b600061366c8582860161347d565b925050602083013567ffffffffffffffff81111561368957600080fd5b61369585828601613414565b9150509250929050565b600080600080608085870312156136b557600080fd5b60006136c38782880161347d565b945050602085013567ffffffffffffffff8111156136e057600080fd5b6136ec87828801613414565b935050604085013567ffffffffffffffff81111561370957600080fd5b61371587828801613414565b925050606085013567ffffffffffffffff81111561373257600080fd5b61373e87828801613414565b91505092959194509250565b600080600080600060a0868803121561376257600080fd5b60006137708882890161347d565b955050602086013567ffffffffffffffff81111561378d57600080fd5b61379988828901613414565b945050604086013567ffffffffffffffff8111156137b657600080fd5b6137c288828901613414565b935050606086013567ffffffffffffffff8111156137df57600080fd5b6137eb88828901613414565b92505060806137fc8882890161347d565b9150509295509295909350565b6000806040838503121561381c57600080fd5b600061382a8582860161347d565b925050602061383b85828601613468565b9150509250929050565b600080600080600080600060e0888a03121561386057600080fd5b600061386e8a828b0161347d565b975050602061387f8a828b01613468565b965050604088013567ffffffffffffffff81111561389c57600080fd5b6138a88a828b01613414565b955050606088013567ffffffffffffffff8111156138c557600080fd5b6138d18a828b01613414565b945050608088013567ffffffffffffffff8111156138ee57600080fd5b6138fa8a828b01613414565b93505060a061390b8a828b0161347d565b92505060c061391c8a828b0161347d565b91505092959891949750929550565b60008060006060848603121561394057600080fd5b600061394e8682870161347d565b935050602061395f8682870161347d565b92505060406139708682870161347d565b9150509250925092565b60006139868383613b01565b905092915050565b600061399a8383613d0c565b60208301905092915050565b6139af816141c4565b82525050565b60006139c08261412f565b6139ca8185614175565b9350836020820285016139dc856140fa565b8060005b85811015613a1857848403895281516139f9858261397a565b9450613a048361415b565b925060208a019950506001810190506139e0565b50829750879550505050505092915050565b6000613a358261413a565b613a3f8185614186565b9350613a4a8361410a565b8060005b83811015613a7b578151613a62888261398e565b9750613a6d83614168565b925050600181019050613a4e565b5085935050505092915050565b613a91816141d6565b82525050565b6000613aa282614150565b613aac81856141a8565b9350613abc81856020860161422b565b613ac58161425e565b840191505092915050565b6000613adb82614150565b613ae581856141b9565b9350613af581856020860161422b565b80840191505092915050565b6000613b0c82614145565b613b168185614197565b9350613b2681856020860161422b565b613b2f8161425e565b840191505092915050565b6000613b4582614145565b613b4f81856141a8565b9350613b5f81856020860161422b565b613b688161425e565b840191505092915050565b6000613b7e82614145565b613b8881856141b9565b9350613b9881856020860161422b565b80840191505092915050565b600081546001811660008114613bc15760018114613be657613c2a565b607f6002830416613bd281876141b9565b955060ff1983168652808601935050613c2a565b60028204613bf481876141b9565b9550613bff8561411a565b60005b82811015613c2157815481890152600182019150602081019050613c02565b82880195505050505b505092915050565b6000613c3f6008836141b9565b91507f537570706c6965720000000000000000000000000000000000000000000000006000830152600882019050919050565b6000613c7f6008836141b9565b91507f436f6e73756d65720000000000000000000000000000000000000000000000006000830152600882019050919050565b6000613cbf6000836141a8565b9150600082019050919050565b6000613cd9600c836141b9565b91507f4d616e75666163747572657200000000000000000000000000000000000000006000830152600c82019050919050565b613d158161420c565b82525050565b613d248161420c565b82525050565b6000613d368284613b73565b915081905092915050565b6000613d4d8284613ad0565b915081905092915050565b6000613d648284613ba4565b915081905092915050565b6000613d7a82613c32565b9150819050919050565b6000613d8f82613c72565b9150819050919050565b6000613da482613ccc565b9150819050919050565b60006020820190508181036000830152613dc881846139b5565b905092915050565b60006020820190508181036000830152613dea8184613a2a565b905092915050565b6000602082019050613e076000830184613a88565b92915050565b60006020820190508181036000830152613e278184613b3a565b905092915050565b60006020820190508181036000830152613e498184613a97565b905092915050565b60006060820190508181036000830152613e6b8186613a97565b9050613e7a60208301856139a6565b8181036040830152613e8c8184613a97565b9050949350505050565b600060c0820190508181036000830152613eb08189613a97565b90508181036020830152613ec48188613a97565b90508181036040830152613ed88187613a97565b9050613ee76060830186613d1b565b613ef460808301856139a6565b613f0160a0830184613d1b565b979650505050505050565b60006080820190508181036000830152613f268187613b3a565b90508181036020830152613f3a8186613b3a565b90508181036040830152613f4e8185613b3a565b9050613f5d60608301846139a6565b95945050505050565b600060c0820190508181036000830152613f808189613b3a565b90508181036020830152613f948188613b3a565b90508181036040830152613fa88187613b3a565b9050613fb760608301866139a6565b613fc46080830185613d1b565b613fd160a0830184613d1b565b979650505050505050565b60006020820190508181036000830152613ff581613cb2565b9050919050565b60006020820190506140116000830184613d1b565b92915050565b600060808201905061402c6000830187613d1b565b6140396020830186613d1b565b61404660408301856139a6565b6140536060830184613d1b565b95945050505050565b60006080820190506140716000830187613d1b565b61407e6020830186613d1b565b61408b6040830185613d1b565b61409860608301846139a6565b95945050505050565b6000604051905081810181811067ffffffffffffffff821117156140c457600080fd5b8060405250919050565b600067ffffffffffffffff8211156140e557600080fd5b601f19601f8301169050602081019050919050565b6000819050602082019050919050565b6000819050602082019050919050565b60008190508160005260206000209050919050565b600081519050919050565b600081519050919050565b600081519050919050565b600081519050919050565b6000602082019050919050565b6000602082019050919050565b600082825260208201905092915050565b600082825260208201905092915050565b600082825260208201905092915050565b600082825260208201905092915050565b600081905092915050565b60006141cf826141e2565b9050919050565b60008115159050919050565b600073ffffffffffffffffffffffffffffffffffffffff82169050919050565b6000819050919050565b600063ffffffff82169050919050565b82818337600083830152505050565b60005b8381101561424957808201518184015260208101905061422e565b83811115614258576000848401525b50505050565b6000601f19601f8301169050919050565b614278816141c4565b811461428357600080fd5b50565b61428f81614202565b811461429a57600080fd5b50565b6142a68161420c565b81146142b157600080fd5b5056fea365627a7a7231582081387b0c0e8ac29c6d3e911e066b1914b1b81f4af9ea3c894ffb3a5534c056486c6578706572696d656e74616cf564736f6c63430005100040",
  "source": "pragma solidity >=0.4.21 <0.6.0;\npragma experimental ABIEncoderV2;\n\ncontract supplyChain {\n    uint32 public product_id = 0;   // Product ID\n    uint32 public participant_id = 0;   // Participant ID\n    uint32 public owner_id = 0;   // Ownership ID\n    uint32 public truck_id = 0;\n    string[] public locations;\n    uint32 public store_id = 0;\n    string[] public tempInventory;\n    uint32 public order_id = 0;\n\n\n    struct product {\n        string modelNumber;\n        string partNumber;\n        string serialNumber;\n        address productOwner;\n        uint32 cost;\n        uint32 mfgTimeStamp;\n    }\n    mapping(uint32 => product) public products;\n\n    struct participant {\n        string userName;\n        string password;\n        string participantType;\n        address participantAddress;\n    }\n    mapping(uint32 => participant) public participants;\n\n    struct truck {\n        uint id;\n        uint quantity;\n        product p;\n        uint arrivalTime;\n        string location;\n        address driver;\n    }\n    mapping(uint32 => truck) trucks;\n    \n    struct retailer {\n        address storeName;\n        uint id;\n        string location;\n        product[] inventory;\n        uint revenue;\n    }\n    mapping(uint32 => retailer) stores;\n\n    struct order {\n        retailer r;\n        product p;\n        uint quantity;\n        uint orderNumber;\n    }\n    mapping(uint32 => order) orders;\n\n    struct ownership {\n        uint32 productId;\n        uint32 ownerId;\n        uint32 trxTimeStamp;\n        address productOwner;\n    }\n    mapping(uint32 => ownership) public ownerships; // ownerships by ownership ID (owner_id)\n    mapping(uint32 => uint32[]) public productTrack;  // ownerships by Product ID (product_id) / Movement track for a product\n\n    event TransferOwnership(uint32 productId);\n\n    function newStore(string memory l) public returns (string memory) {\n        uint32 ID = store_id++;\n        stores[ID].id = ID;\n        stores[ID].storeName = msg.sender;\n        stores[ID].location = l;\n        return (\"New store Created\");\n    }\n\n    function addStock(uint32 storeID, uint quantity, string memory modelNumber_, string memory partNumber_, string memory serialNumber_, uint32 cost_, uint32 stamp_) public {\n        product memory p = product(modelNumber_, partNumber_, serialNumber_, stores[storeID].storeName, cost_, stamp_ );\n        stores[storeID].inventory.push(p);\n    }\n\n    function getStock(uint32 storeID) public {\n        delete tempInventory;\n        if (stores[storeID].id == storeID) {\n            for (uint i = 0; i < stores[storeID].inventory.length; i++) {\n                tempInventory.push(stores[storeID].inventory[i].serialNumber);\n            }\n        } else { tempInventory.push(\"No Items\"); }\n    }\n\n    function printStock(uint32 id) public view returns (string[] memory tempInventory) {}\n\n    function newShipment(uint q, uint32 productID, uint time, string memory l) public returns (string memory) {\n        uint32 truckID = truck_id++;\n        trucks[truckID].id = truckID;\n        trucks[truckID].quantity = q;\n        trucks[truckID].p = products[productID];\n        trucks[truckID].driver = msg.sender;\n        trucks[truckID].arrivalTime = time;\n        trucks[truckID].location = l;\n        return (\"New Shipment Created\");\n    }\n\n    function addLocation(string memory name) public {\n        locations.push(name);\n    }\n\n    function ship(uint32 truckID, string memory location) public view returns (bool) {\n        if (trucks[truckID].id == truckID) {\n            for (uint i = 0; i < locations.length; i++) {\n                if (keccak256(abi.encodePacked(locations[i])) == keccak256(abi.encodePacked(location))) {\n                    return true;\n                }\n            }\n        }\n        return (false);\n    }\n\n    function addParticipant(string memory _name, string memory _pass, address _pAdd, string memory _pType) public returns (uint32){\n        uint32 userId = participant_id++;\n        participants[userId].userName = _name;\n        participants[userId].password = _pass;\n        participants[userId].participantAddress = _pAdd;\n        participants[userId].participantType = _pType;\n        return userId;\n    }\n\n    function getParticipant(uint32 _participant_id) public view returns (string memory, address ,string memory) {\n        return (participants[_participant_id].userName, participants[_participant_id].participantAddress, participants[_participant_id].participantType);\n    }\n\n    function addProduct(uint32 _ownerId, string memory _modelNumber, string memory _partNumber, string memory _serialNumber, uint32 _productCost) public returns (uint32) {\n        if(keccak256(abi.encodePacked(participants[_ownerId].participantType)) == keccak256(\"Manufacturer\")) {\n            uint32 productId = product_id++;\n            products[productId].modelNumber = _modelNumber;\n            products[productId].partNumber = _partNumber;\n            products[productId].serialNumber = _serialNumber;\n            products[productId].cost = _productCost;\n            products[productId].productOwner = participants[_ownerId].participantAddress;\n            products[productId].mfgTimeStamp = uint32(now);\n            return productId;\n        }\n        return 0;\n    }\n\n    modifier onlyOwner(uint32 _productId) {\n        require(msg.sender == products[_productId].productOwner,\"\");\n        _;\n    }\n\n    function getProduct(uint32 _productId) public view returns (string memory,string memory,string memory,uint32,address,uint32){\n        return (products[_productId].modelNumber, products[_productId].partNumber, products[_productId].serialNumber,\n                products[_productId].cost, products[_productId].productOwner, products[_productId].mfgTimeStamp);\n    }\n\n    function newOwner(uint32 _user1Id,uint32 _user2Id, uint32 _prodId) onlyOwner(_prodId) public returns (bool) {\n        participant memory p1 = participants[_user1Id];\n        participant memory p2 = participants[_user2Id];\n        uint32 ownership_id = owner_id++;\n        if(keccak256(abi.encodePacked(p1.participantType)) == keccak256(\"Manufacturer\")\n            && keccak256(abi.encodePacked(p2.participantType))==keccak256(\"Supplier\")){\n            ownerships[ownership_id].productId = _prodId;\n            ownerships[ownership_id].productOwner = p2.participantAddress;\n            ownerships[ownership_id].ownerId = _user2Id;\n            ownerships[ownership_id].trxTimeStamp = uint32(now);\n            products[_prodId].productOwner = p2.participantAddress;\n            productTrack[_prodId].push(ownership_id);\n            emit TransferOwnership(_prodId);\n            return (true);\n        }\n        else if(keccak256(abi.encodePacked(p1.participantType)) == keccak256(\"Supplier\") && keccak256(abi.encodePacked(p2.participantType))==keccak256(\"Supplier\")){\n            ownerships[ownership_id].productId = _prodId;\n            ownerships[ownership_id].productOwner = p2.participantAddress;\n            ownerships[ownership_id].ownerId = _user2Id;\n            ownerships[ownership_id].trxTimeStamp = uint32(now);\n            products[_prodId].productOwner = p2.participantAddress;\n            productTrack[_prodId].push(ownership_id);\n            emit TransferOwnership(_prodId);\n            return (true);\n        }\n        else if(keccak256(abi.encodePacked(p1.participantType)) == keccak256(\"Supplier\") && keccak256(abi.encodePacked(p2.participantType))==keccak256(\"Consumer\")){\n            ownerships[ownership_id].productId = _prodId;\n            ownerships[ownership_id].productOwner = p2.participantAddress;\n            ownerships[ownership_id].ownerId = _user2Id;\n            ownerships[ownership_id].trxTimeStamp = uint32(now);\n            products[_prodId].productOwner = p2.participantAddress;\n            productTrack[_prodId].push(ownership_id);\n            emit TransferOwnership(_prodId);\n            return (true);\n        }\n        return (false);\n    }\n\n    function getProvenance(uint32 _prodId) external view returns (uint32[] memory) { return productTrack[_prodId]; }\n\n    function getOwnership(uint32 _regId)  public view returns (uint32,uint32,address,uint32) {\n        ownership memory r = ownerships[_regId];\n        return (r.productId,r.ownerId,r.productOwner,r.trxTimeStamp);\n    }\n\n    function authenticateParticipant(uint32 _uid, string memory _uname, string memory _pass, string memory _utype) public view returns (bool) {\n        if(keccak256(abi.encodePacked(participants[_uid].participantType)) == keccak256(abi.encodePacked(_utype))) {\n            if(keccak256(abi.encodePacked(participants[_uid].userName)) == keccak256(abi.encodePacked(_uname))) {\n                if(keccak256(abi.encodePacked(participants[_uid].password)) == keccak256(abi.encodePacked(_pass))) {\n                    return (true);\n                }\n            }\n        }\n        return (false);\n    }\n}",
  "sourcePath": "C:\\Users\\logan\\Desktop\\(2022 Spring) CST - 461\\Smart Contracts\\contracts\\SupplyChain.sol",
  "compiler": {
    "name": "solc",
    "version": "0.5.16+commit.9c3226ce.Emscripten.clang"
  },
  "schemaVersion": "3.4.4",
  "updatedAt": "2022-02-02T06:18:45.189Z",
  "networkType": "ethereum",
  "devdoc": {
    "methods": {}
  },
  "userdoc": {
    "methods": {}
  }
}